:100000000C94FE000C9416010C946F010C941601D4
:100010000C9416010C9416010C9416010C94160104
:100020000C9416010C9416010C9416010C941601F4
:100030000C9416010C9416010C9416010C941601E4
:100040000C9416010C9416010C9416010C941601D4
:100050000C9416010C9416010C9416010C941601C4
:100060000C9416010C9416010C9416010C941601B4
:100070000C9416010C9416010C9416010C941601A4
:100080000C9416010C9416010C9416010C94160194
:100090000C9416010C9416010C9416010C94160184
:1000A0000C9416010C9416010C9416010C94160174
:1000B0000C9416010C9416010C9416010C94160164
:1000C0000C9416010C9416010C9416010C94160154
:1000D0000C9416010C9416010C9416010C94160144
:1000E0000C9416010C9416010C9416010C94160134
:1000F0000C9416010C9416010C9416010C94160124
:100100000C9416010C9416010C9416010C94160113
:100110000C9416010C9416010C9416010C94160103
:100120000C9416010C9416010C9416010C941601F3
:100130000C9416010C9416010C9416010C941601E3
:100140000C9416010C9416010C9416010C941601D3
:100150000C9416010C9416010C9416010C941601C3
:100160000C9416010C9416010C9416010C941601B3
:100170000C9416010C9416010C9416010C941601A3
:100180000C9416010C9416010C9416010C94160193
:100190000C9416010C9416010C9416010C94160183
:1001A0000C9416010C9416010C9416010C94160173
:1001B0000C9416010C9416010C9416010C94160163
:1001C0000C9416010C9416010C9416010C94160153
:1001D0000C9416010C9416010C9416010C94160143
:1001E0000C9416010C9416010C9416010C94160133
:1001F0000C9416010C9416010C94160111241FBEC8
:10020000CFEFCDBFDFE3DEBF00E00CBF18BE19BEED
:100210001ABE1BBE20E2A0E0B0E201C01D92A130D8
:10022000B207E1F70E9418010C9490020C940000B0
:10023000CF93DF9300D000D0CDB7DEB780E496E057
:1002400020E4FC01228380E496E021E0FC01218788
:1002500080E496E020E4FC01228780E496E021E03F
:10026000FC01268B82EA90E021E0FC012083789457
:10027000109200200E94E8010E944C028091002010
:100280008130E1F71092002088E20E94CA01898340
:1002900089E20E94CA018A838AE20E94CA018B8392
:1002A0008BE20E94CA018C838CE20E94CA018D837A
:1002B0008DE20E94CA018E8389810E9475028A8123
:1002C0000E9475028B810E9475028C810E947502CA
:1002D0008D810E9475028E810E947502CFCF1F9280
:1002E0000F9200903F000F921124009038000F925F
:1002F0001092380000903A000F9210923A0000904D
:100300003B000F9210923B002F938F939F93EF939C
:10031000FF93CF93DF93CDB7DEB78CE496E021E077
:10032000FC01208381E0809300200000DF91CF91C9
:10033000FF91EF919F918F912F910F9000923B0031
:100340000F9000923A000F90009238000F900092A8
:100350003F000F901F901895CF93DF931F921F922D
:10036000CDB7DEB789836A8380EA96E020E1FC019D
:10037000268389810E941E028A810E941E0280EAD1
:1003800096E020E1FC01258300000F900F90DF91A3
:10039000CF910895CF93DF931F921F92CDB7DEB711
:1003A0008A8380EA96E020E1FC0126838A818068C6
:1003B0000E941E020E943502898380EA96E020E1B5
:1003C000FC01258389810F900F90DF91CF910895D3
:1003D000CF93DF93CDB7DEB70E94020261E082E1E6
:1003E0000E94AC0160E580E10E94AC0168E388E115
:1003F0000E94AC0161E08DE00E94AC010000DF9141
:10040000CF910895CF93DF93CDB7DEB780EA96E022
:1004100020EFFC01258380EA96E020EBFC0121839C
:1004200080EA96E020E4FC01228380EC9BE02EE54C
:10043000FC0120830000DF91CF910895CF93DF93DB
:100440001F92CDB7DEB7898380EC9BE02981FC0148
:100450002383000080EC9BE0FC0182818823D4F799
:1004600000000F90DF91CF910895CF93DF93CDB728
:10047000DEB780EC9BE027E3FC012383000080ECE7
:100480009BE0FC0182818823D4F780EC9BE0FC0197
:100490008381DF91CF910895CF93DF93CDB7DEB7FE
:1004A00080E696E028E0FC01258380E696E028E0DF
:1004B000FC01218380E696E024E0FC01228380EAAF
:1004C00099E0FC01168280EA99E0FC01178280EA3B
:1004D00099E023E0FC01258380EA99E028E1FC0112
:1004E00024830000DF91CF910895CF93DF931F9273
:1004F000CDB7DEB78983000080EA99E0FC018181F5
:10050000882F90E080729927892BB1F380EA99E0D7
:100510002981FC01208300000F90DF91CF91089585
:04052000F894FFCF7D
:00000001FF
